:020000040800F2
:10400000C005002019CA00080D4F0008054F000820
:10401000074F0008094F00080B4F00080000000080
:104020000000000000000000000000000F4F00082A
:10403000114F000800000000134F0008154F000842
:1040400061CA000861CA000861CA000861CA0008A4
:1040500061CA000861CA000861CA000861CA000894
:1040600061CA000861CA000861CA000861CA000884
:1040700061CA000861CA000861CA000861CA000874
:1040800061CA000861CA000861CA000861CA000864
:1040900061CA000861CA000861CA000861CA000854
:1040A00061CA0008214F000861CA000861CA0008FF
:1040B00061CA000861CA000861CA000861CA000834
:1040C00061CA000861CA000861CA000861CA000824
:1040D00061CA000861CA000861CA000861CA000814
:1040E00061CA000861CA000861CA00080000000037
:1040F00000000000000000000000000000000000C0
:1041000000000000000000005FF808F12DE9F04712
:1041100085684668089FB54203D2761BB6FBF7F662
:1041200003E0AE1BB6FBF7F6F6430468AC4600238B
:10413000BB4223D011F80380B444B8F1000F18BF7C
:1041400000244FEA5C0844444FEA1449444449F3CC
:10415000C03A4FEA14488AEA490948F3C03A8AEA61
:104160004808A9F50049A8F5004848F34E0849F366
:104170004E09C84422F813800133D9E703FB0653E4
:1041800004608360BDE8F0872DE9F04785684668E4
:104190009246B542089F036803D2761BB6FBF7F63A
:1041A00003E0AE1BB6FBF7F6F643AC460024BC4278
:1041B0001BD00A5DB4440AB9634400E000230E4AF0
:1041C0004FEA136932F81980023232F919900FFA66
:1041D00088F2C2EB0902C3F30F2909FB02F208EBD4
:1041E00022482AF814800134E1E704FB06540360F6
:1041F0008460BDE8F08700BFE28201082DE9F04F3E
:104200008368446889B0A342D0F800C004D2129DEC
:10421000E41AB4FBF5FB05E0129E1C1BB4FBF6F49C
:104220006FEA040B129D47F6FF74B0F91090B4FBCF
:10423000F5F4B0F90E50129EC9EB050565430E4426
:10424000CDF810900595069603950293069DA94218
:104250006DD0039DDDF810A04FF4F0460AEBE53475
:10426000DDF80890664311F8014BD944002C4FEA61
:10427000590718BF4FF0000CBC444FEA1C4444F3EC
:10428000C03585EA4404F613A4F5004406F500663B
:1042900036B2CDF808900FFA84F906FB09F94FEA17
:1042A000E939A9F50049274C1FFA89F94FEA292A6B
:1042B00034F81A80A51C35F91AA00096BC440FFAF0
:1042C00088F6C6EB0A0A5FFA89F94FEA1C47CDF86F
:1042D0001CA009FB0AFA47F3C03989EA4707A7F58A
:1042E0000047DDF800903FB209FB07F6F61308EB34
:1042F0002A28A6F5004648F34E08B6B2A2F8008078
:10430000371234F8174035F9177025B27D1BF6B215
:104310007543DDF80CA004EB2525059C45F34E05FF
:10432000A844A24422F8028BCDF80CA08EE7129E7E
:10433000C28906FB0B3302828360C0F800C009B05B
:10434000BDE8F08FE88801082DE9F04F8BB00492AA
:10435000836842680568934204D2149CD21AB2FB67
:10436000F4FB05E0149E9A1AB2FBF6F26FEA020B18
:10437000149C47F6FF72B0F91070B2FBF4F2B0F97A
:104380000E40149EE41B54430E4405970794089670
:1043900003940293089FB9427DD0029FDDF80CC0C0
:1043A000DDF814A05F440AEBEC3202974FF4F047BB
:1043B000574311F8012BFF13002A029A18BF00255A
:1043C0004FEA520C6544394C07F500672E0E3FB298
:1043D00034F816200697A71C37F9168016B2C6EBDC
:1043E0000806C5F30F2808FB06F6DDF818A002EB57
:1043F00026460FFA86F90AFB09F94FEAE939A9F5C9
:1044000000492B4A1FFA89F94FEA292A32F81A8003
:10441000961C36F91A700FFA88FACAEB07075FFA8A
:1044200089F909FB07FA049F08EB2A2A4AF34E0A86
:104430006544A7F800A04FEA156C1E4F34F81C40E5
:1044400037F91CC027B2C7EB0C07C5F30F2C0CFBC8
:1044500007F7DDF818C004EB27473FB20CFB07F461
:10446000E413A4F50044A4B2271232F8172036F959
:10447000177016B2E4B2BE1B664302EB262646F363
:104480004E06B244049A039C079E22F802AB3444C1
:10449000049203947EE7C28905600282149A02FBAB
:1044A0000B3383600BB0BDE8F08F00BFE2820108E0
:1044B000EE8E0108E4820108B0F90E302DE9F04FCC
:1044C000C3F5FF43B0F916407F3304EB63034FEAB3
:1044D00083199B120E2B28BF0E23DD1C0133244CA5
:1044E0000F2B08BF0E23033354F8255054F82360D4
:1044F0001FFA89F90023099CA34236D090E8900066
:104500003C440460CC5C0CB10024046007683C0EA1
:104510004FEA440C35F814800CF1020C35F90CB05C
:104520000FFA88FAC7F30F27CAEB0B0A07FB0AFA40
:1045300036F8144008EB2A4836F90CA00FFA84FC30
:10454000CCEB0A0C07FB0CF71FFA88F804EB2744A6
:104550000FFA88FC24B2CCEB040409FB04F408EB4A
:10456000244822F813800133C5E7BDE8F08F00BF6F
:10457000740300204FF6FF73984228BF184640434B
:10458000800C70474FF6FF73984228BF18461B1ADD
:104590005B43980C404270472DE9F04F8BB0089276
:1045A00098468268436804469A42049204D29B1A51
:1045B000149AB3FBF2F305E0049AD31A149AB3FBEE
:1045C000F2F3DB430793149B0691D4F818B0194417
:1045D000049D0991069A099B9A4200F0D280B4F991
:1045E0000E304FF4404A0AFB03FA069A079912F874
:1045F000016B0D44EB00534528BF9A46069276B3F3
:10460000013E76022268C6F57F43FF332F0C07FB7D
:104610000323934206D3217B31B9534534BF002194
:10462000012102E0012100E00021524505911AD349
:10463000B4F912703046BF10A7F50067BFB2A78269
:104640003FB2A7EB9347FFF795FF78430BEBE03BB7
:104650003046FFF797FF78430123C71305E005961F
:104660003346374601E00123002721682944A94247
:1046700021602CBF00220122B8F1000F0AD008F1FE
:10468000010052B14FEAD51CB1FBFCF1013188F8B1
:1046900000108046290CD94608E088F80020F8E789
:1046A000002B58D1207B28B1207B58BB05980028CF
:1046B000F8D1F5E7206850454CD3CAEB000CB4F8AC
:1046C00014B0BCFBF1FCCBEB904B60460091029226
:1046D0000193CDF80CC0FFF74DFF0FFA8BFB00FBE9
:1046E0000BF0DDF80CC009EBE0396046FFF74AFF3C
:1046F00000FB0BF007EBE03701202073019B029ACF
:104700000099D1E732B3B4F912B00091CBF38F0B1B
:10471000ABF50062A28222680193B2FBF1F210466F
:104720000292FFF727FFABF58F4BABF17F0B0FFA30
:104730008BFB00FB0BF0029A09EBE0391046FFF708
:1047400021FF9DE80A0000FB0BF0002207EBE03799
:104750002273ABE71BB14E4300232660237323680B
:1047600008995345A9F5005938BFB4F914B04FEA78
:10477000490928BF4FEA934B21F8029BBB4408919B
:1047800028E707981499049AC4F818B001FB00238D
:10479000A3600BB0BDE8F08F2DE9F04F8BB008920D
:1047A00098468268436804469A42049204D29B1A4F
:1047B000149AB3FBF2F305E0049AD31A149AB3FBEC
:1047C000F2F3DB430793B4F90E300691B3F5FA4FD9
:1047D000C4BF4FF4FA43E381149BD4F818B01944D2
:1047E000049E0991069A099B9A4200F0A480069AB9
:1047F000B4F90E30079912F8015BC3F500430E447B
:104800004FEA034A06921DB3013D6D022168C5F5CA
:104810007F42FF32300C00FB02128A4206D3217B1A
:1048200039B9524534BF0023012303E0012105912A
:1048300001E00023059352450ED32846FFF79AFE68
:10484000C0EB0B0B2846FFF79DFE0122474205E017
:1048500005952A462F4601E00122002720683044B2
:10486000B04220602CBF00210121B8F1000F0AD016
:1048700008F1010C59B14FEAD619B0FBF9F001303B
:1048800088F80000E0464FEA164CD94608E088F860
:104890000010F7E7002A38D1207B28B1207BE8B947
:1048A000059B002BF8D1F5E7206850452CD3CAEBC7
:1048B000000BBBFBFCFB584603910292CDF804C0F1
:1048C000FFF758FE81445846FFF75CFE074401207D
:1048D0002073DDF804C0029A0399DFE7A1B12168D3
:1048E0000292B1FBFCFB5846CDF804C0FFF742FE34
:1048F000C0EB09095846FFF745FE00213F1A217316
:10490000DDF804C0029ACBE722B10CFB05F50022CA
:104910002560227322680899A9F5804947F6FF7B34
:104920004FEA4909524538BF4FF0000B21F8029B6E
:10493000BB44089156E707981499049AC4F818B034
:1049400001FB0023A3600BB0BDE8F08F2DE9F04F11
:104950009846D0F80890436887B099450446049279
:1049600005D2109AC9EB0303B3FBF2F305E0109AEA
:10497000C3EB0903B3FBF2F3DB430293109BA7697C
:104980000B448A4605934D46059B9A4568D002998B
:104990001AF8016B0D4416B3013E76022268C6F583
:1049A0007F43FF334FEA154B0BFB032B93452CBF83
:1049B0000022012230460392FFF7DCFD4FEA5B4BF9
:1049C00000FB0BF0A7EBE0373046FFF7DBFD00FB09
:1049D0000BF04FEAE03BCBF1000B012302E0039622
:1049E0003346B34621682944A94221602CBF0022E6
:1049F0000122B8F1000F0DD008F101003AB14FEAE1
:104A0000D51CB1FBFCF1013188F8001001E088F8F9
:104A100000208046039901B993B982B121682A0C1C
:104A2000B1FBF2F2104600930192FFF7A3FD019A49
:104A30003F1A1046FFF7A6FD009BC0EB0B0B23B1FE
:104A40002B0C5E43002326602373049AA7F580474E
:104A500023687F0022F8027B04920BEB534793E715
:104A6000029A1099A76101FB0293A36007B0BDE809
:104A7000F08F2DE9F04F8BB00892D0F808B0426863
:104A8000044693451F4605D2149BCBEB0202B2FBB2
:104A9000F3F205E0149BC2EB0B02B2FBF3F2D2433C
:104AA000B4F90E00149BB0F5806F0792B8BF4FF4B5
:104AB00080600591A2691944B8BFE08109915E4602
:104AC000059B09998B4200F0B180059B0799B4F9C9
:104AD0000E9013F8015B0E444FEA09490593002D2F
:104AE00034D0013D6D022068C5F57F41FF314FEAAA
:104AF000164808FB0101814206D3207B30B94945A5
:104B000034BF0023012302E0012300E00023C9EBAE
:104B10000100890C01EB9041C9F100082846C1EB66
:104B2000984804930292FFF725FD00FB08F0029AD3
:104B300002EBE03228460292FFF724FD00FB08F06A
:104B400001214FEAE0380691029A02E004950695A9
:104B5000A84620683044B04220602CBF00210121CB
:104B60004FB107F1010C51B14FEAD61AB0FBFAF080
:104B70000130387067464FEA164C924608E03970AB
:104B8000F8E7069B002B3CD1227B2AB1227BFAB9A5
:104B9000049A002AF8D1F4E722684A452FD3C9EBDA
:104BA0000202B2FBFCF210460391CDF804C002925F
:104BB000FFF7E0FC029AAAEB600A1046FFF7E2FC5E
:104BC0000122A8EB60082273DDF804C00399DDE739
:104BD000A9B12268CDF804C0B2FBFCF210460292E3
:104BE000FFF7C8FC029AAAEB600A1046FFF7CAFC5E
:104BF0000021A8EB60082173DDF804C0C8E706991E
:104C000021B10CFB05F50022256022732168AAF56D
:104C1000804AC9EB01098A0C08994FEA4A0A02EB5B
:104C2000994221F802AB4244089149E7A2610799F1
:104C3000149A02FB01B3A3600BB0BDE8F08F000033
:104C400010B543F6FF739942A8BF1946A1F58041FC
:104C5000002311F5C06103F10103FAD407480C11D8
:104C600050F82420013450F8240001F00F01801A7C
:104C7000414302EB2110D84010BD00BF587A010813
:104C80002DE9F74F067F9A461F4B934653F836702F
:104C900003EBC602437F0446B3428946D2F8048040
:104CA0000FD0012343604CF20103002583824FF4AF
:104CB000F053056005730582C5814582C382856115
:104CC0004677B4F9165020462946FFF7B9FFB5F5E7
:104CD000804F606002DD4FF4804302E0002D01DA76
:104CE0000023E38218F0010F4FEA680016BF235833
:104CF0003D46DD590C9B2044009349465A46534695
:104D0000A84703B0BDE8F08F0000002070B54FF455
:104D1000F053002501264CF201020446A0F86C2055
:104D2000A0F86E30A0F88C20A0F88E30A0F8AC204F
:104D3000A0F8AE308565C66580F86450A0F868506C
:104D4000A0F86650A0F86A5005678567C66780F8C6
:104D50008450A0F88850A0F88650A0F88A50C0F877
:104D60009050C0F89850C0F89C6080F8A450A0F80B
:104D7000A850A0F8A650A0F8AA50C0F8B050C4227D
:104D8000D830294607F0E4FE40F6FD734FF4845214
:104D9000C4F8A031C4F8B431C4F8C831C4F8DC3167
:104DA0004FF48043C4F89C51C4F8A451C4F8A851EE
:104DB000C4F8B051C4F8B851C4F8BC51C4F8C451D7
:104DC000C4F8CC51C4F8D051C4F8D851C4F8E0515B
:104DD000C4F8E451C4F80052C4F80452A4F8EE2117
:104DE000A4F8F03184F8EC61C4F8F45184F8086256
:104DF000C4F82052C4F82452A4F80E22A4F81032A9
:104E000084F80C62C4F8145284F82862C4F8405242
:104E1000C4F84452A4F82E22A4F8303284F82C624C
:104E2000C4F8345284F84862C4F8B85084F8D460A6
:104E300084F8D3606565A580E58070BD2DE9F74FE6
:104E4000C1F3C22B0BF1010B4FEACB1BC1F30417CB
:104E5000C1F341230BFB0BFB01F00F01C90203332C
:104E6000C1F57F454FEA872A00220193FF350AF5F5
:104E7000005A13469CB26443A4F5004424B24C4348
:104E8000A3F180084FEA082805FB08484FEA2848A4
:104E900008FB08F696FBFBF688EAE87CACEBE87CBE
:104EA0001036B6B20CFB07FC4FF48004803694FB3E
:104EB000F6F60AFB08F4DFF848805FFA82F938F961
:104EC00019804FEA6C1C0CF5005C94FBFCFCC6F5E9
:104ED0007F4406FB08F60FFA8CFCFF3404FB0C64DD
:104EE000241440F823400133019CB3F5807F224411
:104EF000C0D1D0F8FC33C0F8003403B0BDE8F08F67
:104F0000E2820108FEE7FEE7FEE7FEE77047704732
:104F100070477047014806F0F1BA00BF3C490020D5
:104F2000584BF0B51A8AD20740F1AB804FF6FE72AB
:104F30001A82554A554B11681B68182202FB03124E
:104F4000534B4FF4805033F81230524AC3F50043AC
:104F50009BB210615061180AA2F55442908100BFC3
:104F600000BF00BF00BF00BF00BF00BF00BF00BF49
:104F700000BF00BF00BF00BF00BF00BF00BF1B02DB
:104F80009BB29381444B454A9D68107885F010058B
:104F90003E4BC5F30015157000281A680CBF284653
:104FA0000020182505FB02123D4D0131A8543D4A51
:104FB00017291578344C40EA05001070154601D8C1
:104FC000216006E0002222601A68013202F003022A
:104FD0001A60354B9A68012A21D00BD3022A26D1B8
:104FE000324C0021A28902F00F0212021A80A18124
:104FF00099601CE02D4C1988A2890A43596892B225
:1050000003EB41061A80B281224E01221144326123
:1050100001F0030172610626A681596006E0234A69
:1050200091895968890189B2918102229A605B68ED
:105030001D4A33BB9468012C23D11D4B518AD7895B
:10504000168A9289A3F8BC10A3F8B620A3F8B8700A
:10505000A3F8BA60174948B1174B5B7913B104FA4A
:1050600003F39BB201330B8000232B700B8843B1F9
:10507000013B104A9BB213801BB9104B01221A70DE
:10508000F0BDF0BD002C0140844F00204C4B0020AF
:10509000C2050020000C014000080140344A0020F5
:1050A00082060020784B0020544B00200030014045
:1050B0003C490020C0050020944F0020514B0020A7
:1050C000012210B540F2ED212A4806F05BFD2A4886
:1050D00004F01AFD294806F01DF8294B0021294843
:1050E000196006F05FFB284806F0B4FC274806F07C
:1050F000BDFB2748FFF70AFE264804F0FFFB2648C1
:1051000006F0BCFC254B264A03F16000A2F13001F9
:10511000914203D0002421F8024BF9E7A3F11801D2
:10512000994203D0002401F8014BF9E701F118037B
:10513000834202F13002E9D11A4B02221A601A4B63
:1051400000241C60194B4FF6FF721C60184B194865
:10515000DC811C829C609A81174B1968FFF76EFEF8
:10516000164B04489C60DC605C601C60BDE810402D
:1051700006F04EBD504B0020944F00203C490020CB
:10518000C84F0020544B0020344A0020904F00208C
:10519000E4060020384A0020884F00209A060020AC
:1051A000F20500204C4B0020304A0020844F0020A4
:1051B0000C4A00207C4B0020ECF7FF1F684B0020BE
:1051C0002DE9F04F944C954BE17BA27BC900D200B6
:1051D000934D53F8222053F821302A606B606B699D
:1051E000296A55F8232085B011449142296212D2D0
:1051F00001336A8BDBB2022B1ABFC2EB02421214DC
:105200000022AA83AA8B6B612A8305EB4302928951
:1052100000236A832B626A69814B55F82220C2B150
:10522000186A804E010E36F81120023636F8111039
:10523000C0F30F20891A41435E8B02EB114189B202
:10524000C1F57F427143188BFF3202FB001212142A
:105250009A83A279B5F81C806F4B734F734E82B35B
:105260001B6AB7F91220DFF8ECE1D21ABEF8003061
:1052700092B218B211B200F1020C614502DC0238A0
:10528000814202DAAEF80020134639221BB25343A2
:10529000227802EBE323372BD8BF23EAE37344F2EF
:1052A0005422D4BF9BB23823B15CDBB2994203D005
:1052B0005E49012081F8D400B3545D4A82F8C030C1
:1052C00009E044F25422B15C1B7899421CBF0121D1
:1052D00086F8D410B354238DB989B4F92400594306
:1052E000E37800EB2131B7F80EC008FB03F3608DC3
:1052F00094F811E00CFB00F008FB0EFE01EB5313D9
:10530000B4F926C047F6FF718B42A8BF0B4623EACB
:10531000E3730CEB2030ADF80C3000EB5E10338003
:10532000E3798842B8BF014621EAE17113F0FB0F2F
:105330007180394A398A05D1D3699269594302EBA0
:10534000213113E0012B05D1D369A1F266615943E4
:10535000091306E0032B07D0A1F2666101EBC1013E
:10536000491001F5F05101E04FF40A51227D314816
:105370003C32D20104F026FBA379DFF89C9063B99C
:10538000798A99F80770D9F82020032F04D08B1A56
:105390004FF4F05253431B131844274B21791A88BA
:1053A00029B112B2821A3F327E2A00F20B81234ABF
:1053B000188023491368E77A01FB03FE214B7344ED
:1053C00013609AB2204B7AB91A6851431D4A0A44B5
:1053D00059681A60120C02FB02121C495A60120E24
:1053E00031F9122012029A60D9689A68521A01EBB8
:1053F0002242DA607A43164B00EBE2401A785ABB3D
:105400005A885968A2F50042C1EB022201EB222220
:105410005A60131221E000BF944F002040DB0008C7
:105420000C4A00204AE90008544B0020E406002002
:105430003C490020384A0020804F0020BC03002057
:105440000D6619005FF36E3C684B0020E282010894
:10545000884F0020924F00200023217C00EB232363
:1054600008FB01F003EBD010A37A80F30E007BB1B0
:10547000800080B2584F021237F81230023737F8E6
:10548000122000F0FC00D21A504303EB202080B21F
:10549000E279237A042A514AA3F1020318BF0022B9
:1054A0004FF4C06707FB03234D4A80B218441378BA
:1054B00030815BB14B4B012083F8D400AB8B2B8345
:1054C000AB896B8300236B612B621370464B474A99
:1054D0001868182505FB00251A68454B4FF0300960
:1054E00009FB0239A27C434B002A6FD1DA78002AEB
:1054F0006CD15B7C002B69D1002967D129464A46D3
:105500001823384804F0E2F9A2783B4B277B33F8A4
:1055100012606278394B7F4333F812B0A27C4FF6A9
:10552000FF73002A08BF9846354BC7EB07371D8825
:105530000023CDF80480BFB2A9F102021946B3FBE3
:10554000F6F006FB103010B951880BEA010108B2E1
:1055500068430014A0F50048DDF804C01FFA88F87D
:10556000DFF8A4904FEA282AC5EB0C0459F82AC0AA
:105570000AF1010A59F82A905FFA88F8CCEB090978
:1055800008FB09F80CEB282C0FFA8CFC07FB0CFC31
:1055900005EB2415C7F57F44FF3481B204FB00C03E
:1055A00001330014182BADB222F8020FC7D1144BEF
:1055B0001D800D4B1A68013202F003021A6005B01B
:1055C000BDE8F08F0F4A01211170F0E62846002156
:1055D000182207F0BDFA91E70CA0010800EEFFFFCA
:1055E000514B0020E4060020304A002082060020B3
:1055F000C2050020944F0020FED30008F0D300081D
:105600007A4B0020784B00207C4B002010B5FFF730
:1056100057FD0F4B0F4A5B7A117899420BD0282126
:1056200013704B430C4A0D48D41804F10801D25EA4
:10563000636804F075F90A4B1A680A4B1B689A42B2
:1056400002D0FFF7BDFDF6E7074806F02FF8E0E7C8
:10565000944F00204800002048CC0008384A002021
:10566000304A00204C4B00203C4900202DE9F74FE8
:10567000B0F90C704668BF11C7F50077B608BFB225
:105680000468458C90F820C0466001970B4406EBF7
:10569000460A99422FD011F8017B002F18BF002431
:1056A0000027A146B846DDF804B0B1445D450BD3F0
:1056B000C57B4FEA196C8CEA450C2CEA050C0CEB07
:1056C000550C5FFA8CFC0025DFF838B0013557F82F
:1056D0000BB00437102F0BFB0C88ADB2E3D14FEAAF
:1056E0002828A8F5DC480AEB0607A8F130083C4456
:1056F00022F8028BCDE780F820C04584046003B017
:10570000BDE8F08F44D800082DE9F04F85B0019135
:105710000393B0F91210C389029201F140041AB246
:10572000A24202DC40398A4200DA4382B0F91230E8
:10573000142253431221DB0B4B43454AB0F90C4072
:10574000D118D35C6400634301EB13414A78897834
:10575000009345683F4B02EBC21201EBC1111A44A2
:1057600019446D080023039EB3426ED00468019E65
:105770002C440460F45C0CB10024046007687C0EC7
:1057800004F1010A165D12F80AC0C7F35708C6EB08
:105790000C0C08FB0CFC4FEA0629A9F500490C5D2E
:1057A00011F80AA009EB2C4CDDF800901FFA8CFCD4
:1057B0001FFA89F64FEA0429C4EB0A0408FB04F433
:1057C000A9F5004909EB24490FFA8CFB0FFA89F976
:1057D000CBEB090906FB09F92F447C0E07600CEBA3
:1057E000294904F1010C12F8048012F80CB0C7F337
:1057F00057074FEA082AC8EB0B0807FB08F80C5DAF
:1058000011F80CC0AAF5004A0AEB284A4FEA04280E
:10581000C4EB0C047C43A8F500481FFA8AFA08EB95
:1058200024480FFA8AFB0FFA88F8CBEB080806FB2E
:1058300008F60AEB264A49F34E094AF34E0A029C3F
:10584000D14424F8139001338DE705B0BDE8F08F03
:10585000DAD6000858F900082DE9F04F8FB007920A
:10586000B0F90C20B0F90E40C2EB02121211550132
:10587000C4EB04142411ADB205956501C4F3C4242E
:10588000C2F3C422ADB2013404EB0214029500222B
:10589000854E651EADB2755D02F1280C05EBC5178E
:1058A000824D365D2F44E8464CF808700AAF174425
:1058B00006EBC616083235441034102A7D60A4B2B7
:1058C000E6D142680B9E520806920A9ACB180C9CAD
:1058D0000D9D039201960893089B994200F0E18088
:1058E0000368DDF818804344036011F8013B0BB1F5
:1058F000002303600268039E530E16F803C0C2F330
:105900005706039A5F1C12F807804FEA0C29CCEB6C
:10591000080806FB08F8DDF804C0A9F5004914F8EA
:1059200003A009EB28481CF8039014F807C0059A57
:10593000CAEB0C0C06FB0CFCC2F57F42FF32049252
:105940004FEA0A2B019AABF5004B0BEB2C4C12F8EB
:1059500007B04FEA092AC9EB0B0906FB09F9AAF5BA
:10596000004AEB5CEF5D1FFA88F80AEB294A0FFA50
:105970008AFA0FFA88F9029AC9EB0A0A4FEA032950
:10598000FB1A734302FB0AFAA9F500491FFA8CFCC3
:1059900009EB234908EB2A480FFA89F90FFA8CFA28
:1059A000CAEB090902FB09F9059B0CEB294C0FFA1C
:1059B0008CFC03FB0CFC049E0FFA88F806FB08CC59
:1059C0000268069EDDF80C801644730E06605F1CAC
:1059D000CDF824C018F803C018F80780C6F357069E
:1059E000CCEB080806FB08F84FEA0C29DDF804C0E8
:1059F000A9F5004914F803A009EB28481CF8039006
:105A000014F807C0019ACAEB0C0C06FB0CFC4FEA19
:105A10000A2BABF5004B0BEB2C4C12F807B04FEAFE
:105A2000092AC9EB0B0906FB09F9AAF5004AEB5C48
:105A30001FFA88F80AEB294AEF5D0FFA88F90FFA86
:105A40008AFA029AC9EB0A0A4FEA0329FB1A73433E
:105A500002FB0AFAA9F500491FFA8CFC09EB23495D
:105A600008EB2A480FFA89F90FFA8CFACAEB0909F0
:105A700002FB09F9059B0CEB294C0FFA8CFC03FB8C
:105A80000CFC049E0FFA88F806FB08C8DDF824C059
:105A9000079A4FEA684808EB6C4822F8028B079295
:105AA0001AE70FB0BDE8F08FF493010858F9000829
:105AB0002DE9F04F95B0079343690E92B0F90C2091
:105AC00003EB430303EB42039B10B0F91020109348
:105AD0004361904B52129A5C0A908F48089102EBF6
:105AE000C212109902440592C1F38522995C0A9D65
:105AF000134401EBC111079A01445C784FF4004351
:105B0000B3FBF2F303916A68B5F90E105208CE00A8
:105B1000B1F5005F0B9311962B680D9280F2FE8019
:105B2000DDF82C90089FDDF81C804FEA49024744BD
:105B300092B2139712924FF0000B0899139A914268
:105B400000F043830898059910F8012B059C002A62
:105B500018BF00235F0807F07E484FEA186811F865
:105B600008C0059E590E4D1C08900795605C755D38
:105B700027F07F470402281A7843A4F5004404EB79
:105B8000204080B20C900D98DDF80C900344DDF8B5
:105B900044A058081FFA8AFA099700F07E4619F8BF
:105BA000017005995A46059CCDF818A0CAF57F4B9F
:105BB000360EDDF82CA08D5D590E14F8019092443C
:105BC0001FFA8AFACDF83CA04FEA092AAAF5004A42
:105BD000CDF808A0DDF814A04C1C0BF1FF0BCDF89C
:105BE00010B01AF804B020F07F40C9EB0B0900FB9D
:105BF00009F9DDF808B04FEA0C2C0BEB294ADDF867
:105C00000C90DDF834B019F80110DDF848905B44D1
:105C100091441FFA89FBDDF80C90ACF5004C19F8A3
:105C200008801FFA8CFC4FEA0829A9F500490FFAF1
:105C300089F90FFA8CF8C8EB090802FB08F80CEB9D
:105C4000284C4FEA07280FFA8CFCA8F50048CDF83D
:105C500008C0CDF80480DDF81CC0DDF80C802D02F2
:105C600018F80C90DDF804C0C7EB0907DDF82490A4
:105C7000A5F5004509FB07F7DDF830900CEB274848
:105C80000FFA88F80FFA89F7C7EB080802FB08F843
:105C9000DDF818C009EB28480FFA88F80CFB08F863
:105CA000029A049FADB207FB028CDDF80C802AB289
:105CB00018F80660DDF83C903602A6F5004636B2CC
:105CC000B21A09FB02F218F8044005EB22450A0259
:105CD000611A4143A2F500421FFA8AFA02EB2142FF
:105CE0000FFA8AF612B2921B09FB02F20AEB224269
:105CF000DDF818A012B20AFB02F22DB207FB052252
:105D000012140E9802EB2C4C4FEA6C0C20F802CBCC
:105D10000E9012E72ED4000858F9000804EBC414C2
:105D200004440494109CB1F5804F4FEA841292B25F
:105D3000069280F2D6800B9F089D079E7A0035441C
:105D400092B2129513924FF0000C089C129DAC4237
:105D500000F03B820898059C10F8012B059E002A54
:105D600018BF00235A0EA15C541C16F80490039F20
:105D70000890C1EB0909C3F357000D0200FB09F9B4
:105D8000B95C3F5DA5F500457F1A474305EB2949FE
:105D90000D020D99A5F50045194407914B0E05EB31
:105DA0002747BFB2F55C079E01970FFA87F8DDF829
:105DB00010A0059FDDF844B0591CC6F357060C9699
:105DC000CDF83C801FFA8BFB1AF8028017F801A06F
:105DD000CDF824B0CBF57F42DDF830B0C5EB0A0A30
:105DE0000BFB0AFA2E02039DA6F5004606EB2A4A93
:105DF000EE5C6D5C4FEA062BAD1B0C9EABF50047CD
:105E0000754307EB2545049F1FFA89F9FB5C0F9F3B
:105E10000FFA89FBCBEB07070CFB07FB09EB2B49C0
:105E20000FFA89F9CDF80890DDF810904FEA082BA9
:105E300019F80440ABF5004BC8EB040800FB08F868
:105E40000BEB2848DDF83CB006980FFA88F8CBEB4E
:105E5000080800FB08F8019C1FFA8AFA04EB28479F
:105E60000B9CDDF82480ADB22EB20FFA8AF06444A8
:105E70003FB208FB07F7A4B2301A6043049CDDF878
:105E800008B0FF32615C02FB0B790C9F0AEB204AE1
:105E90001802CB1A7B43A0F5004000EB2343DDF84A
:105EA00018801BB29B1B08FB03F3DDF824B005EB45
:105EB00023431BB20BFB03F30FFA8AFA02FB0A33EC
:105EC0001B1403EB2949139A0E99079B0D984FEA6F
:105ED0006909624421F8029B03441FFA82FC0E9177
:105EE00033E7B1F5C04F01DB0022D5E0002605966F
:105EF000059A079CA24200F06881DDF82080059F8A
:105F0000DDF80C9018F80720DDF810A0002A18BF63
:105F100000235C085A0E24F07F4604F07E4402F110
:105F2000010C240E19F802101AF8027019F80C501E
:105F300019F8042008026D1A12020D99A2F5004208
:105F40000B4492B20C9275435A0E19F80290DDF888
:105F500044B0A0F500401FFA8BFB4FEA092A00EB82
:105F60002545AAF5004ACBF57F40CDF83CA0FF308F
:105F7000DDF80CA00B90501CCDF824B01AF800B03E
:105F80004FEA530828F07F41C9EB0B0901FB09F9DF
:105F9000DDF83CB008F07E480BEB294ADDF81090A4
:105FA0004FEA186819F80220DDF80C90ADB219F824
:105FB00008B0DDF834904FEA0B2B4B444FEA072929
:105FC000A9F50049CDF83C90DDF81090ABF5004BF9
:105FD00019F80CC01FFA8BFBC7EB0C077743DDF8F1
:105FE0003CC0069E0CEB27490FFA89F90FFA85FC95
:105FF000CCEB090906FB09F9049F05EB29453E5D39
:10600000DDF830903602A6F50046DDF818C036B24D
:106010000FFA89F4341B0CFB04F4099E09EB2444A9
:1060200024B27443DDF810900B9F19F800002DB2D4
:1060300007FB05451402821A4A4319F80810A4F513
:1060400000440902A1F5004104EB224409B20FFA11
:106050008BF28A1A0CFB02F21FFA8AFA0FFA8AF6FE
:1060600024B2A41B0BEB22420CFB04F4DDF824B099
:1060700012B20BFB02F20AEB244A0FFA8AFA07FB70
:106080000A221214059902EB25450E986D1020F88E
:106090001150013105912BE707998A4200F0958054
:1060A000089D0D98A95C039E002918BF00234FEAA4
:1060B000530C0CF07E490344DDF844A00CF0784CFE
:1060C0004FEA1C6C5C084FEA196916F8098016F84B
:1060D0000C701FFA8AF104F07E46DDF80CA004F083
:1060E0007844360E240E1AF806501AF80400DDF82B
:1060F00034A04FEA08285344DDF810A0A8F5004862
:106100001AF809901FFA88F84FEA092AAAF5004AF6
:106110000FFA8AFA0FFA88F9C9EB0A09DDF818A014
:106120003F020AFB09F9DDF810A008EB29481AF82C
:106130000C90A7F500474FEA0929BFB2A9F500491D
:106140000FFA89F90FFA87FCCCEB090CDDF81890EF
:10615000C1F57F4B09FB0CFC07EB2C473FB24F43CB
:106160000BF1FF0B0FFA88F80BFB08781AF8067092
:106170002D02A5F500453F02ADB2A7F500472EB2AE
:106180003FB2BE1B09FB06F605EB26451AF8046074
:106190000002A0F50040360280B2A6F5004604B227
:1061A00036B2341B09FB04F400EB244424B26143EF
:1061B0002DB20BFB0511091401EB28480E984FEA8C
:1061C000680820F81280013266E70A9C109D23605F
:1061D0006B10238215B0BDE8F08F00BF2DE9F04FA2
:1061E0008DB0079300F5CA730293037F00F29455B4
:1061F0000446174603959BB100214FF48062029834
:1062000006F0A6FC00214FF48052039806F0A0FC93
:1062100004F120000021C42206F09AFC0023237719
:1062200094F90D30B4F90E10C3F1AC039BB208938E
:10623000A368A26A5B08A3F50033491201920631F4
:106240001A0A5143B4F82080B4F82290606AE66AD2
:10625000CDF81080CDF824907C4A5D1A95420595C2
:1062600002D95B084908F7E702F174429142F8D875
:106270004FEA15494FEA11484FF0000A258ECDF834
:106280002880CDF82C903A1DCDF818A0DDF8189094
:10629000099BDDF810C01FFA89F8079F4344C444E6
:1062A0009BB21FFA8CFC002F00F0BE8094E88002A5
:1062B000B944C4F80090DDF81090DDF828A009F585
:1062C000006BCAEB0B0B0B9FC34409F5005A1FFA76
:1062D0008BFBC7EB0A0AC244CBF30907DDF8088041
:1062E0000BF1FF3BCBF3090B18F9077018F90BB052
:1062F0001FFA81F90097C9F57F4709FB0BF9DDF813
:1063000000B0FF3707FB0B98059F1FFA8AFA1FFAA8
:1063100087F9DDF80CB0CAF30B070AF1FF3ACAF3AC
:106320000B0A1BF907701BF90AA00097C9F57F47F4
:1063300009FB0AF9DDF800A0FF3707FB0A9744F2D2
:10634000666909FB00F04FEA28484FEA082843F243
:10635000B86909FB08004FEA630ADFF8FC900133D3
:106360005B1039F81AA039F813303F143F02534438
:10637000C01307EB5303DDF820B003440BFB03FA13
:10638000DFF8D8904FEA6A1ABAF1000FB8BFCAF125
:10639000000ACA45A8BFCA46DFF8C4904FEA6A2A75
:1063A00039F81A90DDF80CB003FB09F3DB13C0EBEE
:1063B000030ADB1B029FCCF30B091B124FEA2A2AAC
:1063C000CCF3090C0BF809A007F80C3041F699132F
:1063D000019F03FB08F841F624337B431B1303EBB7
:1063E000E8381B4B734308EB23381A4BC6EB0806FF
:1063F0009E4205DB47F6FF739E42A8BF1E4600E0A3
:106400001E462DB23544079B069F6D1022F8045C92
:10641000023BB5B2013722F8025C019E0793069752
:106420000432CDF8048031E7B3F5B46F019A28BF88
:106430004FF4B463CCF30B0CA4F820C06384606207
:10644000A262E66225860DB0BDE8F08F0000FF0F66
:1064500071F4FFFF0180FFFF0EA20108FFFF0100A2
:10646000089C01082DE9F0471F46C37E00F58345CF
:1064700004468946904614356BB100F5CA76002172
:106480004FF41172304606F063FB2846314605F0A2
:1064900047FE0023E376237F23B1284605F005FF5E
:1064A00000232377617F2846253905F029FEE289FC
:1064B0002846A18905F0D2FE2846218B05F0F2FE80
:1064C0002846494642463B46BDE8F04705F05CBEDB
:1064D000C368426881685A4300294FEA1232C26099
:1064E000036908DD0139816029B983EAE371A1EB11
:1064F000E3710A44C260C068002BB8BF40427047D5
:106500004FF4845242804FF4804200238280012263
:1065100043618361027083600277704703782BB90F
:10652000B0F902305B1A18BF012300E001230370A9
:10653000418070470378F0B52BB3B0F90220334D9A
:106540005204140E35F81430023535F81440120A8E
:10655000E41A92B2624303EB1243B0F904202C4ECA
:106560005204140E9BB2C36036F81430023636F86B
:106570001440120AE41A92B2624303EB12439BB234
:106580000361002303708668C368056944696EB1BE
:10659000B4F5805FCCBF22464FF4006217117E43F2
:1065A000A2F5006203EB662305EBE2058269554321
:1065B000A1EBE53502FB03F104EBE13415498C4214
:1065C000B8BF0C46B4F5004FA8BF47F6FF71446151
:1065D000A8BF416144690F492D1B6B4302EBE332B5
:1065E0008A42B8BF0A46B2F5004FA8BF47F6FF730C
:1065F0008261A8BF8361037F012B01D18069F0BD57
:10660000022B14BF20462846F0BD00BFF0A90108A8
:1066100046E500080180FFFF2DE9F74F1F46C37EC6
:10662000044690465BB340F60C53C0F8E830302384
:10663000C0F8F8304FF44063C0F8FC3040F6FD730A
:106640000025C0F81031C023C0F80C31C0F8E45068
:10665000C0F8EC50C0F8F050C0F80051C0F8045138
:10666000C0F81451C0F8185100F59A70FFF748FFB0
:106670004023C4F83C31012384F85031E576237F70
:10668000EBB100232377454BC4F8F430D4F8E43061
:106690000133C4F8EC30424BC4F80831D4F8F83078
:1066A0000133C4F8003144F25063C4F81C31D4F80B
:1066B0000C310133C4F814312223C4F83C31B4F94D
:1066C0000C10B4F90EB04900C1F57F41FF3101FB58
:1066D00001F30BFB0BFB1B0C4FEADB3B59430BFBA2
:1066E0000BFB890C4FEA1B4BC1F5FF4101230BEB60
:1066F0004B0B656AA4F8381184F834310BF1800B28
:10670000002F46D004F1E400FFF7E2FED4F8003198
:1067100004F59A7A002B0CBF4FF000094FF4804922
:10672000814404F1F800FFF7D3FE814404F586703C
:10673000FFF7CEFED4F81431228B002B14BF4FF498
:10674000086100211144504609B2FFF7E7FE002618
:106750004FEA2912504649460192FFF7EBFE019A93
:106760001044431B0BFB03F305EBE3350D4B9D423C
:1067700005DB47F6FF739D42A8BF1D4600E01D469E
:1067800028F806500236042EE4D108F10408023F2E
:10679000B6E7656203B0BDE8F08F00BF3333040095
:1067A0003DCAFFFF0180FFFF034B04491A680448FC
:1067B00000FB021018607047BC0300205FF36E3CC2
:1067C0000D6619002DE9F04F8FB00A93B0F90C3027
:1067D000416A03F580630D930291836AC16B07934D
:1067E0000391C36A016B01930891436B816B04327F
:1067F000078CD0F84880D0F84090C66CD0F844B0F0
:10680000056D04460493099106920A99002900F047
:106810003381FFF7C9FF0D99C0F316038B42059032
:1068200080F0A480C0F30B06A6F50066B4F90E0054
:1068300036B206EB460800FB08F8258B43F6FF71DD
:1068400005F5C06303EB68480FFA88F88845A8BFD0
:10685000884628EAE878954B4FEA48484FEA186797
:1068600033F817204FEA47090B92914A09F10209C0
:1068700032F8177039F802C04FEA18281FFA88F862
:10688000C7EB0C0C08FB0CFC464307EB1C47BFB2E4
:10689000039705F5186707EBE6373FB28F42A8BFAD
:1068A0000F4627EAE7777F044FEA176A4FEA4A0C58
:1068B0000CF1020C33F81A603CF802B032F81AA05E
:1068C0003F0ABFB2CAEB0B0B07FB0BFB0AEB1B4AE1
:1068D000DDF814B0CDF830901FFA8AF9CBF3CC3A3A
:1068E000AAF5805A00FB0AF005F5F26505EB204099
:1068F00000B28842B8BF014621EAE1714904080E9E
:106900004FEA400A0AF1020A33F8105032F8100038
:106910003AF80220090A89B2121A4A4300EB1240DF
:106920001FFA80FB0C98C25A0B98121A08FB02F847
:106930003CF803203AF80330921B5B1B5743594342
:1069400000EB184806EB174605EB114547F67C703F
:106950001FFA88F8B6B2ADB200FB08F846434543CB
:106960004FEAE838F613ED134FF6FF7705994FF627
:10697000FB420BB27B4357431B14002B4FEA1747D4
:106980000ADD039A02FB03F109FB03F20BFB03F39D
:10699000091412141B140DE003985B4200FB03F171
:1069A00009FB03F20BFB03F3091412141B144942F5
:1069B00052425B42029808FB00FC01EBEC3C079959
:1069C00047F6FA604843ACEBE0313A48814205DBD8
:1069D00047F6FF708142A8BF014600E001460198DA
:1069E00006FB00FC02EBEC3C089A47F6FA605043C9
:1069F000ACEBE0322F48824205DB47F6FF70824263
:106A0000A8BF024600E00246049805FB00FC03EB29
:106A1000EC3C099B47F6FA605843ACEBE033254861
:106A20008342844605DB47F6FF708342A8BF0346D6
:106A300000E00346D0180844604505DB47F6FF7CBC
:106A40006045A8BF604600E01A481FFA80FC06981F
:106A500020F804CC20F802CC0A9802380A90069854
:106A60000430069004980493019B09900893029BBC
:106A7000019207930291C8E6029B07996362039B08
:106A8000A162E3630199089BE16223630499099B76
:106A90002784C4F84880C4F84090E6646163A36327
:106AA000C4F844B025650FB0BDE8F08F78B0010898
:106AB000DC7B01080180FFFF08B5FFF775FE0014BD
:106AC00008BD00002DE9F84FB0F90E709946BF11CE
:106AD000037FC83704461646B0F80C80BFB22BB30C
:106AE000A0234FF0000AA0F8443080F81CA0FFF764
:106AF000E3FF554B013000F00700062202FB003394
:106B00004FEA073C254651465A5C04350CFB02F21D
:106B1000EA615A18D278013103296A63F4D1062850
:106B200040F6FF7338BF0023A4F84630B4F8441091
:106B300019B10139A4F844102EE0444B48F3033056
:106B4000062202FB00302546844690F806A0C8F3D2
:106B50000B0202FB0AFA1CF801B0C2F5805303FBDA
:106B60000BAA07FB0AFAC5F820A090F809B00CEBB5
:106B7000010A02FB0BF29AF803A0013103FB0A237E
:106B800003294FEA2333AB6300F1010005F104054B
:106B9000DBD10023A4F84630B4F846804D46002DE2
:106BA00050D094E88800226A1F44E36AA16B1A441B
:106BB000E262120E264B02F0F002114333F81190FC
:106BC000226B616A27600A442263E16B120E02F0B5
:106BD000F002114333F811A0A26A636B1D491344FC
:106BE0006363226C1B0E03F0F0031A4331F812B0FA
:106BF000FFF762FF2368626808FB0030904209D308
:106C00000AEB090159443F0E09B2C7F1FF07794366
:106C100089B203E00021E16221636163A1F50041D3
:106C200089B20D480A1230F81230023030F91200E1
:106C30001AB2821AC9B2514303EB212326F8023B50
:106C4000013DACE7BDE8F88F6CD8000894D500088A
:106C500078AE010844E10008DE7C01082DE9F04F20
:106C600089B00493037F04460392B0F82090D0F8D3
:106C700024A000F5CA763BB1304600214FF4805283
:106C800005F066FF00232377A5686D08A5F580351C
:106C9000544B9D4201D96D08FAE72B0C0593B4F9CA
:106CA0000C30B4F918205B10C3F5DA4360339BB2A3
:106CB0000693B4F90E30A2F5005202EB63024A4B80
:106CC000A2F3C712278D33F81210DDF81080049B51
:106CD0001FFA88FB1FFA83FC0CEB09031A46CBEB67
:106CE00003039BB20793B8F1000F70D094E80C0037
:106CF000134423600291CDF804C0FFF7DDFE069B2C
:106D0000DDF804C0584309F580536344DDF814C02E
:106D1000C013CCEB0303CBEB030B1FFA8BFBCBF3C2
:106D20000A030BF1FF3BCBF30A0B36F91BB01FFA3A
:106D300085FC46F26662424336F91300CCF57F4388
:106D40000CFB0BFCFF3303FB00C0284B40148244B8
:106D500003FB0AFAD21302F5CC426632C2EB2A3A9E
:106D600003F6662303FB0AF31B1303F5B343DFF8B3
:106D700080C01A336345029905DB47F6FF7B5B450C
:106D8000A8BF5B4600E0634603FB0AF302EBE33275
:106D9000624505DB47F6FF739A42A8BF1A4600E03A
:106DA000134ADDF81CC03FB2CCF30A0326F81320C7
:106DB000C1F580535F4302FB0177039BC7F30F3795
:106DC00023F8027B039308F1FF3882467FE73FB246
:106DD000C2F30A02A7622284C4F824A009B0BDE865
:106DE000F08F00BF0000FF0778AD0108CDF0FFFF76
:106DF0000180FFFF2DE9F04F91B00B93038C00F160
:106E00002405079300F5CA730693037F00F2945C90
:106E100004460A92468C95E8200CCDF814C073B154
:106E2000604600214FF4805205F092FE002506983E
:106E300000214FF4806205F08BFE2E462577A36873
:106E4000B4F90E704FEA4309A9F50039BF124FEAB1
:106E5000192330375F43C7EB0909774B994503D9AD
:106E60004FEA59097F08F8E703F174439F42F7D8C6
:106E7000B4F90C30B4F918201B11C3F503630433C3
:106E80009BB20E936D4BD21133F812204FEA194C7E
:106E9000390CDDF82C80CDF830C00D9108920B9B99
:106EA0001FFA88F198B2079B08F1FF3C03445A1A75
:106EB00092B20992CDF83CC0B8F1000F00F0AD805D
:106EC00094E80C0013442360079BDDF830C003F501
:106ED000005E86440D9ACCEB0E0E03F50063C1EB09
:106EE0000E0E03449B1A1FFA8EFEDDF814C0591AC9
:106EF000CEF30B030EF1FF3ECEF30B0E1CF90E206A
:106F00001CF903301FFA89F042430193DDF804E0D5
:106F1000C0F57F4389B20698FF3303FB0E22C1F30D
:106F20000903C3560139C1F30901019343561FFAFE
:106F300087FC0CFB03F3CCF57F4E01990EF1FF0E9D
:106F40000EFB01333E49121431F816101B14520285
:106F50005B024900029104920393FFF7ADFDDDF857
:106F600038C002990CFB00F04FEA203C01FB0CFCFE
:106F7000CDF804C0DDF820C0049ACCF5805045431C
:106F80000CFB125540F6D77000FB0BFBDDF824C05C
:106F90002D13CAEB050A0AEB2B3BCCF3090ADDF8EB
:106FA00004C04FEA6B0001EBEC31091ADDF818C0A0
:106FB00049120CF80A10039B002B05DB4FF6FF71FA
:106FC0008B42A8BF0B4600E00023DDF824C052101E
:106FD000CCF30B014FEA232C1A4B33F91C30DDF8AC
:106FE00014C003445B120CF80130174B9A4205DBC6
:106FF00047F6FF739A42A8BF1A4600E01A460F9957
:107000000A988B0720F8022B18BF01360A9018BF88
:10701000B6B208F1FF38AA4641E7B6F5B47F28BFFB
:107020004FF4B476238466846562C4F828A0C4F85B
:107030002CB011B0BDE8F08F0000FF0F78AD010853
:10704000F4940108E07E01080180FFFF2DE9F04F74
:10705000B0F91810514C4904054685B0080E02924B
:1070600034F81020023434F810004FEA1128801A46
:107070001FFA88F808FB00F8B5F90C00484F4004E7
:10708000010E4C00023437F8116002EB1848E25B45
:10709000000A80B2921B424306EB1246414AB5F900
:1070A0000EB032F81110A25AB6B2521A4243BBF5D2
:1070B000804F01EB124203961FFA88F892B22E6AB3
:1070C0006C6A05DA5F46CBF5804A4FF0000B06E0AC
:1070D000CBF5FF477F37ABF5804B4FF0000A90456B
:1070E000C6BFC2EBC23292FBF8F247F6FF72994676
:1070F000B9F1000F4DD00192FFF7DEFC0399019A20
:1071000001FB06F3DB13C3EB600006FB08F304EBA3
:10711000E334254B9C4205DB47F6FF739C42A8BF36
:107120001C4600E01C46001B00FB08F306EBE336A0
:1071300006FB07F304FB0AF19B1303EBA13300FBEF
:107140000BF103EBA131184B994205DB47F6FF73B6
:107150009942A8BF194600E019465143C913A1F549
:10716000004189B2DFF844C008123CF810300CF13D
:10717000020C3CF910C018B2C9B2C0EB0C00484375
:10718000029903EB202321F8023B029109F1FF3918
:10719000AEE76C622E6205B0BDE8F08FF0A9010881
:1071A00046E50008E68601080180FFFFDE7C010855
:1071B0002DE9F04F89B00593436AB0F90C60029352
:1071C000836A078B0393C36A43F6FF750193036BCE
:1071D0000FFA87FA0493F31103F57E43D83303FBC8
:1071E00003F1AA45A8BFAA462AEAEA7A4FEA4A4A20
:1071F0004FEA1A6C490C04464FEA4C0B7248069150
:1072000072490BF1020B31F81C903BF8008030F80A
:107210001CC04FEA1A2A1FFA8AFACCEB08080AFBAC
:1072200008F80CEB184C1FFA8CFCCDF81CC0B4F914
:107230000EC0B610ACF5804C07EB6C0C0FFA8CFC52
:10724000AC45A8BFAC462CEAEC7C4FEA4C4C4FEA6C
:107250001C654FEA450808F1020831F8157030F84E
:10726000155038F800004FEA1C2C1FFA8CFC401B0C
:107270000CFB00F005EB10453BF8010038F801105D
:10728000C9EB0000C91B0AFB00FA0CFB01FC09EB6F
:107290001A4A07EB1C4C1FFA8AFA1FFA8CFC03FBF4
:1072A0000AFA03FB0CF3C6F5FF56ADB24FEA1A4AD1
:1072B0004FEA13491F36171D059B002B78D0FFF7A7
:1072C000FBFB4010002808DDDDF81CC005FB00F1C9
:1072D0000CFB00F309141B1409E0DDF81CC040424C
:1072E0000CFB00F368431B1401145B4249420298F3
:1072F000DDF818C00AFB00F2039803EBE2330CFB45
:1073000000F2A3EBE233324A934205DB47F6FF7209
:107310009342A8BF134600E013460198DDF818C059
:1073200009FB00F2049801EBE2310CFB00F2A1EB47
:10733000E231274A914205DB47F6FF708142A8BF40
:10734000014600E01146581806FB00FC00EB6C30CB
:10735000904205DB47F6FF729042A8BF104600E05E
:107360001B48A0F5004080B2DFF868804FEA202C6F
:1073700038F81C2008F1020838F91C800FFA82FC4A
:10738000C0B2CCEB080C00FB0CFC059802EB2C2CDB
:107390000238019A059002981FFA8CFC27F804CC59
:1073A00027F802CC0492043701910390029383E7FB
:1073B000029B6362039BA362019BE362049B2363C2
:1073C00009B0BDE8F08F00BFDC7B010878B0010890
:1073D0000180FFFFDE7C01082DE9F047044690465E
:1073E0001F46054600F14009AB6AB3F1807F01D822
:1073F000EB6A0BBB0026EE62FFF7D6F980B2B0F560
:10740000804F19D2B4F90C20554BD21133F81230F9
:10741000AE62DB00EB6263686B62FFF74DFBB4F9B1
:107420000E2063685043696A4FEA13234CBF02166B
:10743000C21502FB03136B6210354D45D4D117F111
:10744000FF37C0F08B80626A236AE16A1344A26A44
:1074500044480A442362A2621D0E30F81510861CAF
:1074600036F915C00DB2C5EB0C05C3F30F236B4302
:107470003D4D120C35F812A001EB234109B20AFB75
:1074800001FA236B616BE26B1944A36B2163134414
:10749000A3634FEA116C30F81C2036F91C900FFAE8
:1074A00082FCCCEB0909C1F30F2101FB09F91B0C8C
:1074B00002EB2949616C35F81320236C0FFA89F926
:1074C000194402FB09F9A36CE26C21641344A36420
:1074D0004FEA116C30F81C204FEA694909EB6A4900
:1074E00036F91CA00FFA82FCC1F30F21CCEB0A0C79
:1074F00001FB0CFC1B0C35F8131002EB2C4C236D1C
:10750000626D0FFA8CFC01FB0CFCD118E26DA36DCF
:1075100021651344A36509EB6C4C4FEA116930F8FF
:10752000192036F9196010B2301AC1F30F21414306
:107530001B0C02EB214135F8132009B251430CEB2F
:10754000614111F5004F05DB47F6FF739942A8BF73
:10755000194600E0054928F8021B70E7BDE8F087EE
:10756000EA8A0108E282010850EF00080080FFFF6C
:107570002DE9F04F1E46C37E87B00446154600F540
:107580009A7700F5AA7800F5BA79002B3ED04FF42F
:10759000C062C0F8E8203022C0F8F820C0F80C2102
:1075A0004FF4966200234FF44061C0F8102140F67A
:1075B000FD72C0F8E430C0F8EC30C0F8F030C0F82C
:1075C0000031C0F80431C0F81431C0F81831C0F8E7
:1075D0002031C0F82421C0F82831C0F82C31C0F87F
:1075E000FC1038460193FEF78BFF4046FEF788FFFC
:1075F0004846FEF785FF4FF4FA62019BA4F8782114
:10760000012284F8742184F89021E376237F002BF3
:1076100053D0B4F90E30B4F91800B3F5804FACBFB5
:10762000A3F580420022C0F5404010444FF6FF71A0
:107630008842A8BF0846C0F34F1202F5E241483124
:10764000A4F83811B3F5605FA8BF4FF4605301216F
:107650008B4002F5CF420432A4F858214FF4F022B7
:10766000C4F8F420D4F8E42003F500730A44C4F805
:10767000EC20554AC4F83031C4F80821D4F8F82079
:10768000D4F820310A44C4F8002143F23332801385
:10769000C4F81C21D4F80C210B4400F6FC7080B215
:1076A0000A44C4F82831002384F8341184F85411B2
:1076B000C4F82401C4F814212377218B384601F53E
:1076C000C06109B2FEF72AFF218B404601F54061F7
:1076D00009B2FEF723FF218B484601F5F05109B2AC
:1076E000FEF71CFFB4F90CC04FEA6C0CCCF5AB43B1
:1076F0000CF5AB4C70330CF1700C0435002E60D0DF
:1077000004F1E4000193CDF808C0FEF7E1FE8346E2
:1077100004F1F800FEF7DCFED4F800215844002AFA
:1077200040F63D2208BF002200EB020B04F58670F4
:10773000FEF7CEFED4F8142143F2333A002A08BFF4
:107740004FF0000A8244FFF7B7F9059004F59070F6
:10775000FEF7BEFE594604903846FEF7EBFE514652
:10776000024640460392FEF7E5FEDDF808C0039AA4
:10777000019B00EB2A1002EB2B120CFB00FB5A437F
:107780004FEAEB3B05980BEBE23B049A02FB00F15E
:107790004846C913FEF7CEFE0C4A58449042019B5E
:1077A000DDF808C005DB47F6FF729042A8BF10461F
:1077B00000E0104680B225F8040C25F8020C023EC9
:1077C0009BE707B0BDE8F08F0080FFFF0180FFFF5F
:1077D0002DE9F04F41689A46037F49008BB004467B
:1077E000416063B3837E28260133DBB2022B88BF5E
:1077F00000238376837E0D465E4320368319002066
:107800009860B5F5000F986802DD6D100130F7E75C
:107810004FF4806545FA00F0A0514E001E62B4F9A5
:107820000E60451E06EB4606761006F500567043C0
:10783000DD60000C00255D60D96158612577A37E6D
:10784000282000FB0343203360681D6A890B8542B2
:1078500034BF03F12000201D0068C1F58051D861BC
:10786000B4F90C3089B2B3F5804FA3BFD810A0EBA8
:10787000401000F500304FF6FF70069008B2FF2868
:10788000D8BF4FF48071B3F5804F07DA09B2C3F562
:10789000804909FB01F9C9F38F3901E04FF0000974
:1078A000B4F8448002F1040BBAF1000F00F09480A8
:1078B00004F17803254604F5CA76099300276B6B1B
:1078C00083B1013B6B6336F913300393FFF7F4F890
:1078D000039B00EB400018446B6B801026F81300EC
:1078E000074459E0A96BE86BAB6A01441633A963FE
:1078F000D940EA6A02310A406B6A079207998B42C3
:1079000035D0E96A5A1C0A4006EB430136F813C029
:10791000089136F81210059201910393CDF810C02A
:10792000FEF742FF069980B28842059A039BDDF874
:1079300010C015D801980FFA8CFC01B21CEB0101A4
:1079400043BF4942491049424910B9F1000F05D0DF
:107950000FFA89F0C0F500404143C913089801802F
:107960001BB931882B6A26F813101346C6E7A86B9B
:10797000A96A6B6220FA01F18A0D36F8123006EB23
:107980004202B2F902001AB2821AC1F38F115143B6
:1079900003EB21431BB21F44099A2835954206F692
:1079A00002068CD10F4B9F4205DB47F6FF739F42C7
:1079B000A8BF1F4600E01F460FFA88F8B8444FEAF8
:1079C00068082BF8048C1FFA87F82BF8028CAAF1B0
:1079D000020A0BF1040B67E7A4F844800BB0BDE882
:1079E000F08F00BF0180FFFF10B543F6FF7399428F
:1079F000A8BF1946A1F58041002311F5C06103F12C
:107A00000103FAD407480C1150F82420013450F82F
:107A1000240001F00F01801A414302EB2110D840ED
:107A200010BD00BF587A01082DE9F04F8846B0F923
:107A30000C10B0F8189087B0A1F58041019209EBC5
:107A4000A101426809B204469A4607680292C66AD2
:107A5000056BFFF7C9FFB4F90E300390A3F580431F
:107A600009EBA301204609B2FFF7BEFFC24407F1AC
:107A700080470490CDF814A0059B98455BD018F87A
:107A8000013B13B9029B1F4402E000252E462F46FE
:107A9000039A049B16441D442B4B4FEA176A4FEA86
:107AA000166C290E33F81C0033F8112033F81A90A5
:107AB000023333F91AB00FFA89FACAEB0B0AC7F38B
:107AC0000F2B0BFB0AFA09EB2A4933F91CA00FFA1A
:107AD00080FCCCEB0A0CC6F30F2A0AFB0CFC33F932
:107AE000111013B200EB2C4CCB1AC5F30F214B43F2
:107AF0000FFA89F90FFA8CFC0CFB09FC02EB23420C
:107B00004FEA2C4C12B202FB0CF21214A2F5004206
:107B100092B20E48111230F81130023030F91100D3
:107B200019B2411AD2B24A4303EB2223019A22F836
:107B3000023B0192A0E707F140472760E662256318
:107B400007B0BDE8F08F00BFE2820108DE7C0108CB
:107B50002DE9F04FB0F90CA097B00AF5806A0AFB46
:107B60000AFA01924FEA6A2A028B04460E469846A8
:107B7000AAEB8A09002502EB29439BB219B22046E1
:107B800003920493FFF730FF049B8346591C09B20C
:107B90002046FFF729FF1FFA89F1CBEB0000414394
:107BA0000FAB0BEB2141E95004351C2DD144039A56
:107BB000E1D1237F4BB10025FEF7F6FD63190435B3
:107BC000182D1862F8D100232377B4F90E1042F66D
:107BD000A9229142A1F52A51D4BF18220C222A3998
:107BE0005143B4F91830584803EB611181F30F0188
:107BF00049040A0E30F81230023030F812000A0A36
:107C0000C01A92B2424303EB1242504B0F991B88A9
:107C1000119F05930691109B12990793089709915C
:107C2000139B149F1599B044256DE06C92B20A9392
:107C30000B970C91CDF834800D998E427FD016F8B9
:107C4000013B002B5FD1216ADDF81CC0DDF82080EC
:107C50008C44616A23688844069FA16ADDF82490F9
:107C60003B448944C4F820C0E16ADDF828A04FEA0B
:107C7000DC4C0CEBD34C8A44DDF82CB0216BACF51A
:107C8000E04C0CEBD84C8B440C9F616B0CEBD94C4B
:107C90000CEBDA4C39440CEBDB4C616302910CEBDE
:107CA000D141A1F50041C4F8248089B2DFF8A48055
:107CB0004FEA212CC4F82890C4F82CA0C4F830B0A6
:107CC000236038F81C3008F1020838F91C800FFADC
:107CD00083FCC9B2CCEB080C01FB0CFC05FB02F1E8
:107CE000059F00EBE13007FB05F9194903EB2C2355
:107CF0001BB28842A3EBE9330DDB47F6FF7C6045FE
:107D0000A8BF604608E0002323626362A362E362C7
:107D10002363636397E708461B1A03FB02FC8B424D
:107D200005EBEC3505DB47F6FF718B42A8BF0B4630
:107D300000E0074B019F27F8023B01977CE7E064D6
:107D4000256517B0BDE8F08FF0A9010846E50008E9
:107D50000180FFFFDE7C01082DE9F04F89B0029120
:107D6000B0F90C109B46038BA1F5006103EB610198
:107D7000437F09B20E3BDBB2019343F6FF73994296
:107D8000A8BF1946D0F8208004460492476A866A44
:107D9000C56AFFF729FE804504D2C8EB0000B0FB9E
:107DA000FBF004E0C0EB0800B0FBFBF0C043DDF8E3
:107DB00008900390D944CDF818904346029806994C
:107DC000884200F0C1802268616802980A44DDF8A8
:107DD0000CA02260534410F8012B4FEA933CCDF8DD
:107DE00014C002900AB91F4406E00025012284F85D
:107DF000302025602E462F4622688A4204D25748FA
:107E0000DDF8049050F829704900B1EB420F01D819
:107E10001E440DE094F83010DDF804A081F001015B
:107E200084F830100AF001004C49023051F820600B
:107E30004B49380E31F8109001F1020C3CF910A0BA
:107E40000FFA89F0C0EB0A00C7F30F2A0AFB00F013
:107E50004FEA166A31F81A1009EB20403CF91A90E3
:107E60000FFA81FCCCEB090CC6F30F2909FB0CF9C6
:107E700001EB2949E1890FFA89F9CDF800900FFA51
:107E800081F9C2F3CF3CB9F5804F6FEA0C0AA8BF65
:107E90008CEAE272DDF800C01FFA8AFA0AFB0CF9DC
:107EA00094F830C0B8BF6FEA124200B292B24FEA03
:107EB0002949BCF1000F01D0C9F10009DDF814A077
:107EC0001FFA8AFC0CFB09FC05EB2C45DFF894C07B
:107ED000654505DB47F6FF7C6545A8BF654600E0C4
:107EE0006546DDF804C01CF0020F04D042431FFABF
:107EF00089F9120C0FE000F500404243019812147A
:107F00000128A2F5004208BFA94492B214BF1FFA8B
:107F100085F9C9F34F0908B2B0F5804FA8BFC9432E
:107F2000890089B20FFA89F901FB09F9C1F57F4C83
:107F300012B20CF1FF0C0CFB0299049A4FEA29498A
:107F400022F8029B049239E7039A67620BFB0283D3
:107F5000A662E562236209B0BDE8F08F9CD80008F4
:107F6000E28201080180FFFF2DE9F04F8846B0F959
:107F70000C1085B04910044603930292FFF734FDBC
:107F8000B4F90E10206249102046FFF72DFD0023A2
:107F90006062039A93425DD0226861680A4422605D
:107FA00018F803200AB100222260E26A256A2B4FEA
:107FB0001544E562BE1C2A0E37F812C036F812903E
:107FC000606A226BDFF898B010442063020E37F825
:107FD000127036F81220019222684FEA126A3BF8BA
:107FE0001A608A420BF1020B3BF81AA028D30FFA51
:107FF0008CF10FFA89F9C1EB09090199C5F30F2535
:1080000005FB09F90DB239B2691AC0F30F20C6EBAE
:108010000A0A4843C2F30F2202FB0AF20CEB294C76
:108020004CF34E0C07EB20470CF5C04C47F38D0783
:1080300006EB12466744C6F34E067E43F61302E093
:108040000026E6622663029AA6F5C04622F813606F
:1080500001339EE705B0BDE8F08F00BFE282010862
:1080600054F500082DE9F04F99460E46038BB0F900
:108070000E1003F5C063A1F5804103EB610185B0EB
:1080800009B204461746056AFFF7AEFCB4F90CC006
:108090004FEA5008B4F9100047F6FF73B3FBF9F349
:1080A000C0EB0C0C0CFB03FCB1440190CDF80C9020
:1080B0006346DDF80CA0564538D0019901EBE33258
:1080C00094E803000144216016F8011B09B1002562
:1080D0002560194945444FEA156A31F81A90881C01
:1080E00030F91AB00FFA89FACAEB0B0AC5F30F2B55
:1080F0000BFB0AFA09EB2A490FFA89F902FB09F985
:108100002268634402EB89094FEA196A31F81A10B0
:1081100030F91AA008B2C0EB0A00C9F30F2909FB15
:1081200000F901EB294127F8021BC2E7A389256268
:10813000238205B0BDE8F08FE28201082DE9F04FFF
:1081400087B002929946028BB0F90E3015B2A3F5B2
:1081500080435B10A5F510551D44AD00C5F5FF45E6
:108160007F35002D04460F46B0F824A0066A05DBD3
:1081700047F6FF718D42A8BF0D4600E0002502F5CD
:10818000C062D118204609B2FFF72EFCB4F910B036
:10819000B4F90C2047F6FF73B3FBF9F3CBEB020203
:1081A00002FB03F84008B9440390CDF81090434611
:1081B000DDF810904F454BD00BEBE332019294E881
:1081C00006000A44226017F8012B0AB10026266037
:1081D000DDF80C9022494E440FFA8AFC06EB8C3CE9
:1081E000881C4FEA1C6A31F81A2030F91AA0CCF327
:1081F0000F2CCDF814A0DDF814900FFA82FACAEB18
:10820000090A0CFB0AFADDF804C002EB2A4205FB5E
:108210000CFA12B24FEAEA3A0AFB02FA2268434425
:1082200002EB4A024FEA126931F8191030F919A02D
:1082300008B2C0EB0A00C2F30F2A0AFB00FA029A46
:1082400001EB2A4A1FFA8AFA22F802AB0292AFE740
:10825000A389A4F824A02382266207B0BDE8F08F8A
:10826000E28201082DE9F04F99460E46038BB0F9E2
:108270000E1003F5C063A1F5804103EB610185B0E9
:1082800009B204461746FFF7AFFBB4F91020B4F962
:108290000CC047F6FF73B3FBF9F3C2EB0C0C0CFBFD
:1082A00003FCB144A18C256A01924FEA5028CDF815
:1082B0000C906346DDF80CA056453ED094E80300D0
:1082C00001442160DDF804A016F8011B0AEBE3323B
:1082D00009B1002525601C494FEA156A31F81A904A
:1082E000881C30F91AB00FFA89FACAEB0B0AC5F3E9
:1082F0000F2B0BFB0AFA09EB2A490FFA89F902FB4B
:1083000009F92268634402EB49094FEA196A31F816
:108310001AB030F91A000FFA8BF1411AC9F30F297C
:1083200009FB01F10BEB214189B241F34620813079
:1083300027F8021B08FB0055BCE7A389A184238210
:10834000256205B0BDE8F08FE28201082DE9F04F0B
:108350001E46037F91B004469146CBB1816F024621
:108360000023A448B1F5806F185E03F10203C2F840
:10837000A400BCBF4FF0804010620C2B02F104023D
:10838000EFD100232377278B00251FFA87F820E001
:10839000B0F90C20B2F5FA4FF5DAC2F5FF427F32A0
:1083A00012125243D511024693499448595A185A09
:1083B0000233081A6843A1EBE011906F0C2B00FB0D
:1083C00001F04FEA2040C2F8A40002F10402EBD110
:1083D000D9E78B4B2046E95A414409B2FFF704FB29
:1083E00004EB4503023540000C2DD864F1D1B4F8FC
:1083F000D010B4F90E30019139B2A1F5C06101EB92
:10840000A30181F30F0109047E4D080E35F81020F9
:10841000023535F81000090A801A89B2414302EB8F
:10842000114292B2039243F257229342D4F8D88079
:10843000D4F8DC70D4F8E05002DC03F580530AE095
:10844000B3F5804F05DB4FF48042A3F580430592DE
:1084500003E04FF480430593002343F25822534333
:108460009B1307934FF48033B3FBF6F34FF0000AEE
:10847000099309F10409CDF808A0002E00F0A380AB
:10848000DDF808B0DDF824C0E344CDF808B0FEF70D
:1084900013FBB0F5804F05DC5B4B10F5804FB8BF88
:1084A000184601E04FF480400399C8EB00004843B0
:1084B00008EBE038C7EB08034B4307EBE3377B1BC4
:1084C0004B4304F12000002205EBE33506900492B3
:1084D000069BDFF83CB1C4EB030C8444DCF80C10C1
:1084E00083580B4483504FEA136A3BF81A100BF180
:1084F000020B3BF91AB00891CDF800B0DDF820B0BE
:10850000DCF838100FFA8BFADDF800B0DCF864C044
:10851000CAEB0B0AC3F30F23DDF808B003FB0AF321
:10852000C1EB0C0C0BFB0CFCDDF820A001EBEC31DB
:108530000AEB23431BB25943DDF810C0DDF818B035
:10854000091402F1280A04328C446B460BF1040B27
:10855000182ACDF810C04AF80310CDF818B0B7D1DA
:108560000B9BDDF81CC06B43CCF540521B125A43E9
:108570000A9B059903EBA2320D9BDDF810A06B431B
:108580005B120CFB03F302EBA33301FB0AF203EBD8
:10859000A2331E4A934205DB47F6FF729342A8BFFF
:1085A000134600E01346DDF804B0023E0FFA8BF2EA
:1085B0001A4452109BB229F8042C29F8023C01936A
:1085C00009F1040959E7DDF804C0C4F8D880A4F81B
:1085D000D0C0C4F8DC70C4F8E05004F12003334488
:1085E000D3F8842004362C2E9A65F6D111B0BDE85C
:1085F000F08F00BF0CD4000860D80008ACD8000889
:1086000054D80008F0A9010800C0FFFF0180FFFF57
:10861000E28201082DE9F04789469846B0F9121028
:10862000C3890446924601F140001AB2824202DC3C
:1086300040398A4200DA6382A389B4F910101AB271
:1086400001F11000824202DC10398A4200DA2382F2
:10865000237F23B1FEF7A8F80023E0622377656843
:108660002668002D04DB6D0002D46D0058BF6D003C
:10867000218A2046A1F5804109B2FFF7B5F9B4F986
:1086800012304FF480329B120133012B08BF0223BA
:108690004000B2FBF3F3606259080027474524D03D
:1086A00019F807200AB92E4400E00026AE4217D27E
:1086B000A26A0F4E72430F4E1644226AA66202440B
:1086C0008242226202D2E26A2062A262228DB2FB60
:1086D000F3FC8E1803FB1C22B6B2B21A22862E4679
:1086E000228E2AF817200137D8E72660BDE8F087E8
:1086F0000D6619005FF36E3C2DE9F04F1E46C37EF8
:1087000089B004469246DBB100F59A70FDF7F8FE99
:10871000012542F6E063A4F8383184F8505184F81A
:10872000345104F5AA70FDF7EBFE022384F8703192
:108730004FF4FA63A4F85831002384F85451E376D7
:10874000B4F918102046491001F5A051FFF74CF973
:1087500045F6D162830A5A431209039243F2111279
:108760005A431209049244F2F1725A4312090592D3
:1087700045F2B4725A431209069247F672425343C5
:10878000B4F90C10B4F90E20182704F59A781B09D7
:10879000491005464743404607930092FDF7BEFE49
:1087A000B4F90C1004F5AA7948464910FDF7B6FE55
:1087B000002E64D023683B44BB42236005D2A36BE8
:1087C000304A5A43304B1344A363626ADDF80CB05D
:1087D000A06A5A44DDF810B0E16ADDF814E0236ABB
:1087E00058448E44A062216BDDF818C0C00F2B44A2
:1087F00000EBD2708C4400EBD370616BDDF81CB0E1
:10880000C4F82CE000EBDE7E5944C4F830C00EEB17
:10881000DC7C019161630CEBD1712362033941F27D
:108820005553626259434046FDF784FE174A03469A
:10883000904205DB47F6FF729342A8BF134600E063
:108840001346618F4846A1F5004149100293FDF798
:1088500071FE0E4A029B904205DB47F6FF72904282
:10886000A8BF104600E01046DDF800B0C01A0BFBB0
:1088700000F003EBE0332AF8023B013E98E709B031
:10888000BDE8F08F0D6619005FF36E3C0180FFFFBD
:108890002DE9F843D0F8D450164698460B22EB1C2D
:1088A000B3FBF2F102FB1132C0F8D420027F044680
:1088B00022B90B2B34BF1F460B270EE001460023C5
:1088C000474A04319A5E02334A67162B4FF08042C2
:1088D000CA61F5D1002525770B27BD4219D2414B3E
:1088E00015F0010F33F81510238B20461944B4F905
:1088F0000E3089B214BF01EBE311A1EBE31189B291
:1089000009B2FFF771F804EB85034000D864013524
:10891000E3E7B4F90C30B3F5FA4F03DBB4F8D05009
:10892000321D50E0C3F5FF437F331B125B43002130
:10893000DD1123462C4A2D488A5A085A0231101A52
:108940006843A2EBE012986F162900FB02F04FEA91
:108950002040986703F10403ECD1DFE7076AC36C9A
:10896000DFF890901F4407624FEA176C39F81C300B
:1089700009F1020939F91C900FFA83FCCCEB090CC0
:10898000C7F30F2707FB0CF703EB2743876F1BB2D7
:108990007B4301360B2E01EB634100F10400DDD176
:1089A000134B994216DB47F6FF739942A8BF19464D
:1089B0002DB20D446D1022F8045C8DB222F8025CD9
:1089C000A8F102080432B8F1000F05D000262046B5
:1089D0003146C3E71946EBE7A4F8D050BDE8F88369
:1089E00068D50008C4D600087ED5000818D4000851
:1089F0000180FFFFE282010810B5B1F5804FA8BFEA
:108A00004FF48041A1F580410023002903DA01F5EC
:108A1000C0610133F9E709480C1150F824200134F2
:108A200050F8240001F00F01801A4143C3F10C00FB
:108A300002EB211222FA00F010BD00BFF4AB0108D6
:108A40002DE9F84F1F46B0F90C30B0F92410154647
:108A5000B0F91820A3F5804302EB6303C1EB0111C9
:108A60001944C1F30F11818409B2044600F5CA7894
:108A7000FFF7C2FFE2892F4E520092B2111236F870
:108A80001130023636F911A019B2C1EB0A0A02F010
:108A9000FE0202FB0AFA2168B0F1005F28BF4FF026
:108AA000005003EB2A2A4FEA10491FFA8AFAC1F351
:108AB0000C01C0F34E00AA1E17F1FF3737D3C9EBE4
:108AC0000103C3F30C0503F57F533F33C3F30C03DA
:108AD00038F9156038F91350B2F902C0AD1B45439F
:108AE00006EBE5350FFA8AF66E434FEA6C0303EBAB
:108AF000E636114B9E4205DB47F6FF7B5E45A8BF7D
:108B00005E4600E01E460CEB45056D109D4228F8C0
:108B1000116005DB47F6FF739D42A8BF1D4600E0CC
:108B2000054D013122F8025FC1F30C01C4E7216059
:108B3000BDE8F88FDE7C01080180FFFF2DE9F047DA
:108B40009846437F9146A3F11602D2B2022A044608
:108B50008A4610D8C1893C4841F30725ADB230F8A8
:108B60001520013530F9155010B2281AC9B2414309
:108B700002EB2122E281354A02EBC30152F8336055
:108B8000A27F4F689A423AD00021C42204F120000B
:108B900003F0DEFF002540F6FD73C4F8E830C4F8AA
:108BA000FC30C4F81031C4F8243104F59A70C4F8CC
:108BB000E450C4F8EC50C4F8F050C4F8F850C4F8CD
:108BC0000051C4F80451C4F80C51C4F81451C4F84D
:108BD0001851C4F82051C4F82851C4F82C51FDF79D
:108BE0008FFC04F5AA70FDF78BFC04F5BA70FDF755
:108BF00087FC01232377E376637F2560A377B4F9AD
:108C0000185020462946FEF7EFFE294660602046B0
:108C1000FFF7F2FEB5F58C4FA06002DD4FF48C43F8
:108C200002E0002D01DA0023238317F0010F4FEA41
:108C3000670018BF2358514618BF9E5920444A4622
:108C40004346B047BDE8F087F29201084C0000208F
:108C5000F0B5C2F34F304FF0320C0CFB00FC9DF826
:108C60001470C3F34F3000EB8004013001EB0C05AE
:108C70003C440CF1320C00EB800035F81460614488
:108C8000384435F8105031F9147031F9100034B20D
:108C9000D20092B23C1B29B2411A54434A4306EB1C
:108CA0002444A4B205EB224521B22DB2DB006D1A9B
:108CB0009BB26B4304EB234000B2F0BD2DE9F04FB3
:108CC000C68987899BB0002590F81B800696079778
:108CD00004469446059307462E46069B5FFA86FB9C
:108CE0000FFA83FA079B70490FFA83F952464B46F5
:108CF000CDF800B02046CDF810C0FFF7A9FF00F571
:108D0000C06040046949020E31F81230023131F876
:108D10001220000AD21A80B250430DAA03EB10436E
:108D200022F81630204652464B46CDF800B0604936
:108D3000FFF78EFF0AAB23F8160010AA15ABDDF87B
:108D400010C0B8F1000F03D000215151595103E078
:108D5000B96A5151FA6B5A510136052E05F10405D5
:108D600007F10407B9D1B8F1000F01D00023E37671
:108D70006368BDF928704FEA430B4FEA1B46216830
:108D8000B4F92480206A079609970CF10405059F21
:108D9000002F76D011EB0B0112D3DDF81CA04FF69B
:108DA000FF73B1FBFAF29A4238BF134603FB03F29A
:108DB000C3F57F43FF335B43A0EB92409B0C00E085
:108DC000002303EB514308930DF132030693002374
:108DD0001A4615AE9F590DF1400CA0EBA71603964D
:108DE000069E36F9029F07FB09FA53F80C700696A7
:108DF00007EBEA3A2F4FBA45A8BF5746B7F5004FE1
:108E000043F80C70A4BF47F6FF774CF803700DF1E0
:108E1000400C53F80CC0DDF80CA015AFCCEB0A06E3
:108E200006FB09F9DE5906EBE939224EB145A8BF28
:108E30004E46B6F5004FDE51A4BF47F6FF76FE5012
:108E400015AE9E59099F04337E43142B02EB6642F4
:108E5000BFD1184B9A4205DB47F6FF739A42A8BF71
:108E60001A4600E01A46059E90444FEA6808023E02
:108E700025F8048C25F8022C0596043508989046B0
:108E800085E721602062A4F824803B4610AA9A5806
:108E90000434626215AA9A580433142BA263F5D1E4
:108EA0001BB0BDE8F08F00BF6ED40008F0A9010828
:108EB000CAD500080180FFFF2DE9F00FB0F90E5070
:108EC000B0F90CC0B5F5804F05FB05FA4FEAA515C2
:108ED000A4BFC5F5FF75013505FB05F5AD129EB0C4
:108EE00005FB05F50CEB4C0C44680493B0F8D0304E
:108EF000CCF3581C64004FEA6C0B88464FEAEA3A00
:108F0000019301680023059203940BF5C06B0435AF
:108F10004FEACA1A1A4605AC1E02CCEB0607CBEB89
:108F2000060606FB06F607FB07F796FBF5F997FB27
:108F3000F5F7803709F180094FF480069AFBF9F9BB
:108F400096FBF7F601334E440C2B324444F8046F81
:108F5000E2D1039D6FF000442B0CB3F5804F94FBDE
:108F6000F2F298BF069C056A9CBF544326144FEA50
:108F7000430488BF0026B4F5804F129598BF079D23
:108F8000069698BF554304EB030698BF2F14456A15
:108F900088BF0027B6F5804F1395354698BF089DCA
:108FA000079798BF5543866A98BF2F144FEA8305E9
:108FB00088BF0027B5F5804F149698BF099E089783
:108FC00096BF5643002737140997C66AEF18B7F5BE
:108FD000804F15963E4697BF0A9E0027564337148A
:108FE0000A97066BE718B7F5005F16963E4698BFDE
:108FF0000B9E4FEAC30796BF564300263614C3EBB9
:10900000070C0B96466BBCF5804F179697BF0C9ECE
:109010004FF0000C56434FEA264C866BB7F5804F55
:10902000189698BF0D9E1F4498BF5643CDF830C088
:1090300098BF4FEA264CC66B88BF4FF0000CB7F5BF
:10904000804F199697BF0E9E002756433714CDF8D0
:1090500034C0066C0E97EF18B7F5005F1A963E46BF
:1090600098BF0F9E1D4498BF564303EB450594BF20
:1090700037140027B5F5804F98BF109D466C98BFF8
:10908000554323441B9694BF2E140026B3F5805FEE
:1090900098BF119B856C98BF5A43C36C98BF12143C
:1090A0001D93049B88BF00220F9710961C95119268
:1090B000002B74D0DFF8F0C0059D9B4698F8003077
:1090C00005F1040A0CF1020912AF0290002B48D1FD
:1090D00098F8013008F10208002B44D1039E314476
:1090E00000231D460A460491100E3CF8104039F941
:1090F000106020B2361AC2F30F2000FB06F606A954
:10910000F85804EB2644C95824B200FB04F40E1AA4
:1091100000EB2620F850049E0433302B324405EB3C
:10912000E435E1D11F4B31469D421EDBB5F5004FC2
:10913000B8BFABB202DB47F6FF752B460198BBF117
:10914000020B02B215444FEA65052AF8045C2AF8BE
:10915000023C0AF1040A0CD0019398F80030002B6D
:10916000B6D008F101080021BAE71D4648F2010314
:10917000E4E702980546A0F8D0301EAE45F8201B63
:109180003C460FCCB44228606960AA60EB60274679
:1091900005F11005F4D11EB0BDE8F00F7047019B3A
:1091A00012AFE7E70180FFFFE28201082DE9F341FA
:1091B00006880446A0F86660082084F8740084F8E5
:1091C00094001D4694F903002389A4F88660A4F84E
:1091D0006E300344A4F88E3004F158008846002312
:1091E00000951746FBF74CFD04F1220204F17800CC
:1091F000009541460023FBF743FD20343A46013DEC
:109200006B1C02F102020BD032F9023C5B1022F817
:10921000023C34F9021F03EB610322F8023CEEE743
:1092200002B0BDE8F08173B51D4603890446A0F87D
:109230006E30022380F8743003885830C38130F8D0
:10924000563C1646438200230095FBF719FDB4F9FE
:109250000230C3F5FF437F331B1115F1FF3508D3EF
:10926000B6F900200D211A444A43D21026F8022BE9
:10927000F3E702B070BD2DE9F3471D4603880446AD
:10928000A0F86630A0F8863003898846A0F86E30D2
:10929000A0F88E30012380F87430032380F89430D6
:1092A00000F122060023583000951746FBF7E8FC32
:1092B00004F178004146002300953246FBF7E0FCBC
:1092C000B4F90610B4F9020047F6FF73B3FBF5F3E7
:1092D000401A5843034615F1FF351BD336F9029B5C
:1092E0004FF0940A0AFB09F901EBE33C4FEA4C0CFE
:1092F0001FFA8CFC4FEA2929CCF57F420CFB09FCB4
:1093000037F9028BFF3202FB08C2121427F8022C35
:109310000344E0E76388E38002B0BDE8F0872DE90D
:10932000F3471D4644F254230446C35C0088052BD2
:10933000A4F866004FF0030084F89400B4F902002A
:1093400014BF0123032384F87430B0F5804F2389C0
:10935000ACBF4FF4C0604FF440600026A4F86E30FC
:109360001B1A8946A4F88E3004F158003346A4F83D
:109370008660009504F122079046FBF781FC494680
:109380003A463346009504F17800FBF779FCB4F9CE
:109390000620B4F902C047F6FF73B3FBF5F3C2EB46
:1093A0000C0C0CFB03FC3346614615F1FF351CD356
:1093B00002EBE136B6F5804FBABFC6F57F563F36B1
:1093C000A6F5804637F903A07600B6B2C6F57F4011
:1093D00006FB0AF638F90390FF3000FB0960001421
:1093E00028F8030061440233DFE76388E38002B0BA
:1093F000BDE8F0872DE9F3471D4644F25423C35CD2
:109400000026072B044614BF30460320238984F826
:10941000740084F89400B4F90000A4F86E3004F1EC
:109420000A0903EBA003A4F88E3004F158004B4660
:10943000A4F86660A4F88660009504F122079046BF
:10944000FBF71EFC49463A463346009504F1780086
:10945000FBF716FCB4F90620B4F902C047F6FF7317
:10946000B3FBF5F3C2EB0C0C0CFB03FC334661467B
:1094700015F1FF3516D302EBE13637F903A076007C
:10948000B6B2C6F57F4006FB0AF638F90390FF3006
:1094900000FB0960801400EB400028F803006144E1
:1094A0000233E5E76388E38002B0BDE8F0872DE989
:1094B000F3471D46038904461FB24FF0060EC7F559
:1094C00038500EFB00F0C7F52057C7EBC70700F573
:1094D000FF4007F5FF477F307F3747F6FF76B4F947
:1094E00000C027EAE77720EAE070B742A8BF374616
:1094F000B042A8BF304600FB0CF007FB0CFCC013C9
:109500004FEAEC3CA4F86E30A4F88E30072389466D
:10951000A4F86600A4F886C084F8743084F894E057
:1095200004F158000023009504F122079046FBF750
:10953000A7FB49463A460023009504F17800FBF763
:109540009FFBB4F90620B4F90230B6FBF5F69B1A7E
:109550005E430023314615F1FF3516D302EBE13CA3
:1095600037F903A04FEA4C0C1FFA8CFCCCF57F4076
:109570000CFB0AFC38F90390FF3000FB09C0001413
:1095800028F8030031440233E5E76388E38002B042
:10959000BDE8F0872DE9F04F17461D460288038984
:1095A0008946A0F86E30A0F88E3042F6AA2113B298
:1095B0008B4285B004464FF000060CDC042302EB1E
:1095C0004202A0F86660A0F8866080F8946080F897
:1095D0007430560013E045F25552934211DCC3F546
:1095E0002A532B3303EB4303A0F86660A0F8866090
:1095F000032280F894605E0080F87420013EB6B2C9
:109600000EE0A3F5AA43563B03EB4303A0F86630F4
:10961000032380F874300523A0F8866080F8943026
:10962000494604F158003A46002304F12208009507
:10963000FBF726FB494604F17800424600230095DB
:10964000FBF71EFBB4F90820B4F90230DFF8E09014
:10965000A2EB630000F5804080F30F0040044FEA66
:10966000106C39F81C1009F1020939F81CC0000A05
:10967000C1EB0C0C80B200FB0CF001EB104189B285
:10968000B2F5205F03914FEA4303616D44DDA2F51B
:109690002052A3EB021323EAE3733DE038F9022BD7
:1096A00037F902CB7243C6F57F40FF3000FB0C2038
:1096B0000014421A02900398424301EBE2311B4A24
:1096C00091422DDB47F6FF729142A8BF114601F58A
:1096D0000049DFF860B04FEA292A3BF81AC00BF1C5
:1096E000020B3BF91AB00FFA8CFACAEB0B0A5FFABD
:1096F00089F909FB0AFA0CEB2A2C98B20FFA8CFCB8
:10970000C0F57F4200FB0CF0DDF808C0FF3202FB21
:109710000C02121427F8022C15F1FF35BED201E01D
:109720001146D4E7616505B0BDE8F08F0180FFFF09
:10973000F0A90108E48401082DE9F74F984644F2A6
:109740005423C35C1746093BDBB2022B98BF304A57
:10975000044698BFD25C23894FF00000894688BF39
:109760000522A4F86600A4F88600A4F8A600A4F8D0
:109770006E30235A274D1EB271123612013635F85B
:109780001110B4F808C0761035F916508C441B023D
:1097900009B2691A9BB24B4304EB001E02300CEB7A
:1097A00023430428AEF88E30E3D14FEA480A84F808
:1097B000742084F8942084F8B4203B4607EB0A0216
:1097C000934203D0002123F8021BF9E704F1580665
:1097D00004F1B80BCDF800803046494604F122026E
:1097E0000023FBF74DFA002555450AD06319B3F95C
:1097F0002230152253437A5B02EBA3137B530235CD
:10980000F2E720365E45E5D103B0BDE8F08F00BF3A
:10981000B8D80008BCD8000870B5B0F9D06044884A
:109820000588B6F5345FA0F8C640A0F8C450048996
:1098300008DD25B2B5F5345F04DD35446D10A0F8C0
:10984000D05001E0A0F8D04044F25424045DB83078
:109850000D3C4477BDE87040FFF770B92DE9F34146
:109860001E4600230446A0F86630008984F8743050
:10987000A4F86E00009604F1580017468846FBF7DE
:10988000FFF9B4F9D05063882288B5F5345FA4F8A5
:10989000C630A4F8C420238908DD18B2B0F5345FBF
:1098A00004DD28444010A4F8D00001E0A4F8D03032
:1098B0000C2384F8D53004F1B80041463A463346CB
:1098C00002B0BDE8F041FFF739B9000070B544F2CD
:1098D0005425455D084C04EBC50654F835407568C1
:1098E00015F0010F4FEA650518BF4659284418BF07
:1098F0003459A04770BD00BFAC01002000230122F5
:10990000C0F80431C0F80831C0F80C3102706FF0B3
:109910003F03DA010133402B20F8022FF9D17047C1
:109920002DE9F007002944D0002B42D0002A40D076
:1099300001258446002403F100490CF8805B00F106
:10994000820809F1FF39204625461BE0B7F5004F94
:10995000A8BF47F6FF7731DB16F5004F26DDB6F5D9
:10996000004FA8BF47F6FF762ADB0130834204F19F
:1099700001049CBF01350020402C2CF8027F28F800
:10998000026D18D031F91070C0EB090602FB0577A3
:1099900031F916606FEA050A17F5004F02FB0A66F7
:1099A000D4DC16F5004F48F20107D8DC48F2010676
:1099B000DBE700230370BDE8F0077047BFB2CBE7D9
:1099C000B6B2D2E703782DE9F001002B7CD0D0F8B5
:1099D0000831891A99426ADA1FFA81F800F10805FC
:1099E0007B26002E13DD741035F914300FFA88FC35
:1099F000634505EB440705DC60E035F91360664517
:109A00005EDD1C46631005EB4307002CF5D100F129
:109A10000208C8EB05084FEA6808A8F102039BB2E8
:109A20000FFA88F81CB24FF6FF75A045A0F8105148
:109A30004EDB4FF4804C00EB4404B4F902400FFAC3
:109A40008CF60C1B002CB8BF6442A4B227B2B742FC
:109A500003F10105B8BFA0F81031ABB2B8BFA446FE
:109A60001CB2A045E7DAB0F910315C1E5D1C00EBBA
:109A7000430300EB450500EB4404B3F90210B4F9CD
:109A80000240B5F9023004EBC40403EBC305C1EB9B
:109A9000C1031C442B4424111B11C0F80411C0F84D
:109AA0000841C0F80C318818BDE8F0017047D0F8C3
:109AB0000C31994290DCD0F80411F4E72346344687
:109AC000E31A5E1EBD1C8CE70846BDE8F001704736
:109AD00000256FF001044FF0FF33C8E770B5094C63
